:02000000ff00ff
:080002004c6174746963650030
:17000a00694345637562653220323031372e30382e32373934300069
:16002100506172743a2069434534304858314b2d56513130300002
:1b003700446174653a204d617220313620323031392031343a33323a35370079
:0200520000ffad
:040054007eaa997e69
:02005800510055
:02005a0001059e
:03005c00920020ef
:03005f0062014bf0
:0300620072009099
:0300650082000016
:02006800110085
:02006a00010192
:20006c00000000000000000000000000000000000000000000000000000000000000000074
:09008c000000000000000000006b
:2000950000000000000000000000000000000000000000000000000000000000000000004b
:0a00b5000000000000000000000041
:2000bf00000000000000000000000000000000000000000000000000000000000000000021
:0900df0000000000000000000018
:2000e8000000000000000000000000000000000000000000000000000000000000000000f8
:0a01080000000000000000000000ed
:200112000000000000000000000000000000000000000000000000000000000000000000cd
:09013200000000000000000000c4
:20013b000000000000000000000000000000000000000000000000000000000000000000a4
:0a015b00000000000000000000009a
:200165000000000000040000000000001000000000000040000000001000000000000040d6
:0901850000000000000100000070
:20018e00000000000000000000000000000000000000000000000000000000000000000051
:0a01ae000000000000000000000047
:2001b80000000000000c00000000000030000000000000c00000000030000000000000c03b
:0901d8000000000000030000001b
:2001e1000000000000000000000000000000000000000000000000000000000000000000fe
:0a02010000000000000000000000f3
:20020b000000000000000000000000000000000000000000000000000000000000000000d3
:09022b00000000000000000000ca
:200234000000000000000000000000000000000000000000000000000000000000000000aa
:0a02540000000000000000000000a0
:20025e00000000000000000000000000000000000000000000000000000000000000000080
:09027e0000000000000000000077
:20028700000000000000000000000000000000000000000000000000000000000000000057
:0a02a700000000000000000000004d
:2002b100000000000004000000000000100000000000004000000000100000000000004089
:0902d10000000000000100000023
:2002da00000000000000000000000000000000000000000000000000000000000000000004
:0a02fa0000000000000000000000fa
:200304000000000000000000000000000000000000000000000000000000000000000000d9
:09032400000000000000000000d0
:20032d00000020000000000000000000000000000040000000000000000000000000000050
:0a034d0000000000000000000000a6
:20035700000000000000000000000000000000000000000000000000000000000000000086
:090377000000000000000000007d
:2003800000000000000000000000000000000000000000000000000000000000000000005d
:0a03a0000000000000000000000053
:2003aa00000000000000000000000000000000000000000000000000000000000000000033
:0903ca000000000000000000002a
:2003d30000000000000000000000000000000000000000000000000000000000000000000a
:0a03f3000000000000000000000000
:2003fd000003000000000000000000000000000000000000000000000000000000000000dd
:09041d00000000000000000000d6
:200426000000000000000000000000000000000000000000000000000000000000000000b6
:0a04460000000000000000000000ac
:2004500000000000000000000000000000000000000000000000000000000000000000008c
:0904700000000000000000000083
:20047900000020000000000000000000000000000000000000000000000000000000000043
:0a0499000000000000000000000059
:2004a300000000000000000000000000000000000000000000000000000000000000000039
:0904c30000000000000000000030
:2004cc00000000000000000000000000000000000000000000000000000000000000000010
:0a04ec000000000000000000000006
:2004f6000000000000000000000000000000000000000000000000000000000000000000e6
:09051600000000000000000000dc
:20051f000000000000000000000000000000000000000000000000000000000000000000bc
:0a053f0000000000000000000000b2
:20054900000000000000000000000000000000000000000000000000000000000000000092
:0905690000000000000000000089
:20057200000000000000000000000000000000000000000000000000000000000000000069
:0a059200000000000000000000005f
:20059c0000000000000000000000000000000000000000000000000000000000000000003f
:0905bc0000000000000000000036
:2005c5000000200000000000000000000000000000000000000000000000000000000000f6
:0a05e500000000000000000000000c
:2005ef000000000000000000000000000000000000000000000000000000000000000000ec
:09060f00000000000000000000e2
:200618000000000000000000000000000000000000000000000000000000000000000000c2
:0a06380000000000000000000000b8
:20064200000000000000000000000000000000000000000000000000000000000000000098
:090662000000000000000000008f
:20066b0000000000000000000000000000000000000000000000000000000000000000006f
:0a068b000000000000000000000065
:20069500000300000000000000000000000000000000000000000000000000000000000042
:0906b5000000000000000000003c
:2006be0000000000000000000000000000000000000000000000000000000000000000001c
:0a06de000000000000000000000012
:2006e8000000000000000000000000000000000000000000000000000000000000000000f2
:09070800000000000000000000e8
:200711000000200000000000000000000000000000000000000000000000000000000000a8
:0a07310000000000000000000000be
:20073b0000000000000000000000000000000000000000000000000000000000000000009e
:09075b0000000000000000000095
:20076400000000000000000000000000000000000000000000000000000000000000000075
:0a078400000000000000000000006b
:20078e0000000000000000000000000000000000000000000000000000000000000000004b
:0907ae0000000000000000000042
:2007b700000000000000000000000000000000000000000000000000000000000000000022
:0a07d7000000000000000000000018
:2007e1000000000000000000000000000000000000000000000000000000000000000000f8
:09080100000000000000000000ee
:20080a000000000000000000000000000000000000000000000000000000000000000000ce
:0a082a0000000000000000000000c4
:200834000000000000000000000000000000000000000000000000000000000000000000a4
:090854000000000000000000009b
:20085d0000002000000000000000000000000000004000000000000000000000000000001b
:0a087d000000000000000000000071
:20088700000000000000000000000000000000000000000000000000000000000000000051
:0908a70000000000000000000048
:2008b000000000000000000000000000000000000000000000000000000000000000000028
:0a08d000000000000000000000001e
:2008da000000000000000000000000000000000000000000000000000000000000000000fe
:0908fa00000000000000000000f5
:200903000000000000000000000000000000000000000000000000000000000000000000d4
:0a09230000000000000000000000ca
:20092d000003000000000000000000000000000000000000000000000000000000000000a7
:09094d00000000000000000000a1
:20095600000000000000000000000000000000000000000000000000000000000000000081
:0a0976000000000000000000000077
:20098000000000000000000000000000000000000000000000000000000000000000000057
:0909a0000000000000000000004e
:2009a90000002000000000000000000000000000000000000000000000000000000000000e
:0a09c9000000000000000000000024
:2009d300000000000000000000000000000000000000000000000000000000000000000004
:0909f300000000000000000000fb
:2009fc000000000000000000000000000000000000000000000000000000000000000000db
:0a0a1c0000000000000000000000d0
:200a26000000000000000000000000000000000000000000000000000000000000000000b0
:090a4600000000000000000000a7
:200a4f00000000000000000000000000000000000000000000000000000000000000000087
:0a0a6f00000000000000000000007d
:200a790000000000000000000000000000000000000000000000000000000000000000005d
:090a990000000000000000000054
:200aa200000000000000000000000000000000000000000000000000000000000000000034
:0a0ac200000000000000000000002a
:200acc0000000000000000000000000000000000000000000000000000000000000000000a
:090aec0000000000000000000001
:200af5000000200000000000000000000000000000000000000000000000000000000000c1
:0a0b150000000000000000000000d6
:200b1f000000000000000000000000000000000000000000000000000000000000000000b6
:090b3f00000000000000000000ad
:200b480000000000000000000000000000000000000000000000000000000000000000008d
:0a0b68000000000000000000000083
:200b7200000000000000000000000000000000000000000000000000000000000000000063
:090b92000000000000000000005a
:200b9b0000000000000000000000000000000000000000000000000000000000000000003a
:0a0bbb000000000000000000000030
:200bc50000030000000000000000000000000000000000000000000000000000000000000d
:090be50000000000000000000007
:200bee000000000000000000000000000000000000000000000000000000000000000000e7
:0a0c0e0000000000000000000000dc
:200c18000000000000000000000000000000000000000000000000000000000000000000bc
:090c3800000000000000000000b3
:200c4100000020000000000000000000000000000000000000000000000000000000000073
:0a0c61000000000000000000000089
:200c6b00000000000000000000000000000000000000000000000000000000000000000069
:090c8b0000000000000000000060
:200c9400000000000000000000000000000000000000000000000000000000000000000040
:0a0cb4000000000000000000000036
:200cbe00000000000000000000000000000000000000000000000000000000000000000016
:090cde000000000000000000000d
:200ce7000000000000000000000000000000000000000000000000000000000000000000ed
:0a0d070000000000000000000000e2
:200d110000000000000000000000000000000000280000000000000000000000000000009a
:090d3100000000000000000000b9
:200d3a00000000000000000000000000000000000100000000000001000000000000000097
:0a0d5a00000000000000000000008f
:200d640000000000000000000000000000000000000000000000000000000000000000006f
:090d840000000000000000000066
:200d8d000000200000000000000000000000000000400000000200000000000000000000e4
:0a0dad00000000200000000000001c
:200db70000000000000000000000000000000000000000000000000000000000000000001c
:090dd70000000000000000000013
:200de0000000000000000000000000000000000000000000000000000000000000000000f3
:0a0e000000000000000000000000e8
:200e0a000000000000000000000000000000000000000000000000000000000000000000c8
:090e2a00000000000000000000bf
:200e330000000000000000000000000000000000000000000000000000000000000000009f
:0a0e53000000000000000000000095
:200e5d00000300000000000000000000000000000000000000000000000000000000000072
:090e7d000000000000000000006c
:200e860000000000000000000000000000000000000000000000000000000000000000004c
:0a0ea6000000000000000000000042
:200eb000000000000000000000000000000000000000000000000000000000000000000022
:090ed00000000000000000000019
:200ed9000000200000000000000000000000000000000000000000000000000000000000d9
:0a0ef90000000000000000000000ef
:200f03000000000000000000000000000000000000000000000000000000000000000000ce
:090f2300000000000000000000c5
:200f2c000000000000000000000000000000000000000000000000000000000000000000a5
:0a0f4c00000000000000000000009b
:200f560000000000000000000000000000000000000000000000000000000000000000007b
:090f760000000000000000000072
:200f7f00000000000000000000000000000000000000000000020000000000000000000050
:0a0f9f000000002000000000000028
:200fa900000000000000000000000000000000000000000000000000000000000000000028
:090fc9000000000000000000001f
:200fd2000000000000000000000000000000000000000000000000000000000000000000ff
:0a0ff20000000000000000000000f5
:200ffc000000000000000000000000000000000000000000000000000000000000000000d5
:09101c00000000000000000000cb
:2010250000002000000000000000000000000000000000000000000000000000000000008b
:0a10450000000000000000000000a1
:20104f00000000000000000000000000000000000000000000000000000000000000000081
:09106f0000000000000000000078
:20107800000000000000000000000000000000000000000000000000000000000000000058
:0a109800000000000000000000004e
:2010a20000000000000000000000000000000000000000000000000000000000000000002e
:0910c20000000000000000000025
:2010cb00000000000000000000000000000000000000000000000000000000000000000005
:0a10eb0000000000000000000000fb
:2010f5000003000000000000000000000000000000000000000000000000000000000000d8
:09111500000000000000000000d1
:20111e000000000000000000000000000000000000000000000000000000000000000000b1
:0a113e0000000000000000000000a7
:20114800000000000000000000000000000000000000000000000000000000000000000087
:091168000000000000000000007e
:2011710000002000000000000000000000000000000000000000000000000000000000003e
:0a1191000000000000000000000054
:20119b00000000000000000000000000000000000000000000000000000000000000000034
:0911bb000000000000000000002b
:2011c40000000000000000000000000000000000000000000000000000000000000000000b
:0a11e4000000000000000000000001
:2011ee000000000000000000000000000000000000000000000000000000000000000000e1
:09120e00000000000000000000d7
:201217000000000000000000000000000000000000000000000000000000000000000000b7
:0a12370000000000000000000000ad
:2012410000000000000000000000000000000000000000000000000000000000000000008d
:0912610000000000000000000084
:20126a00000000000000000000000000000000000000000000000000000000000000000064
:0a128a00000000000000000000005a
:2012940000000000000000000000000000000000000000000000000000000000000000003a
:0912b40000000000000000000031
:2012bd000000200000000000000000000000000000400000000000000000000000000000b1
:0a12dd000000000000000000000007
:2012e7000000000000000000000000000000000000000000000000000000000000000000e7
:09130700000000000000000000dd
:201310000000000000000000000000000000000000000000000000000000000000000000bd
:0a13300000000000000000000000b3
:20133a00000000000000000000000000000000000000000000000000000000000000000093
:09135a000000000000000000008a
:2013630000000000000000000000000000000000000000000000000000000000000000006a
:0a1383000000000000000000000060
:20138d0000030000000000000000000000000000000000000000000000000000000000003d
:0913ad0000000000000000000037
:2013b600000000000000000000000000000000000000000000000000000000000000000017
:0a13d600000000000000000000000d
:2013e0000000000000000000000000000000000000000000000000000000000000000000ed
:09140000000000000000000000e3
:201409000000200000000000000000000000000000000000000000000000000000000000a3
:0a14290000000000000000000000b9
:20143300000000000000000000000000000000000000000000000000000000000000000099
:0914530000000000000000000090
:20145c00000000000000000000000000000000000000000000000000000000000000000070
:0a147c000000000000000000000066
:20148600000000000000000000000000000000000000000000000000000000000000000046
:0914a6000000000000000000003d
:2014af0000000000000000000000000000000000000000000000000000000000000000001d
:0a14cf000000000000000000000013
:2014d9000000000000000000000000000000000000000000000000000000000000000000f3
:0914f900000000000000000000ea
:201502000000000000000000000000000000000000000000000000000000000000000000c9
:0a15220000000000000000000000bf
:20152c000000000000000000000000000000000000000000000001401e0008000000000038
:09154c0000000000000000000096
:201555000000200000000000000000000000000000000000000000362c20000200000000d2
:0a157500000000000000000000006c
:20157f00000000000000000000000000000000000000000000200000049f08000000000081
:09159f0000000200000000000041
:2015a800000000000000000000000000000000000001000000080000000ef000000000001c
:0a15c8000000008000000000000099
:2015d200300000000000000000000000000000000000000000000003849f0800000000009b
:0915f200000000000000000000f0
:2015fb00020000000000000000000000000000000000000000000000000cf00000000000d2
:0a161b00000000000002c000000003
:20162500007300000000000000000000000000000000000000000200049f08000000000085
:091645000000000000700000002c
:20164e00000400000000000000000000000000000000000000000004002ef0000000000056
:0a166e00000000000004000000006e
:20167800000000000000000000000000000000000000000000000000169a7400000000002e
:0916980000000000000000000049
:2016a100000000000000000000000000000000000000000000000000034ee64000000000b2
:0a16c100000000000000000000001f
:2016cb000000000000000000000000000000000000000000000002000000000000000000fd
:0916eb00000000000004000000f2
:2016f40000000000000000000000000000000000000000000000001c0000000000000000ba
:0a17140000000000000200000000c9
:20171e00000000000000000000000000000ff010000000000000000000000000000000009c
:09173e000000000000035fc3403d
:201747000800000000000000000000000000ff20000000000000000000000000000000005b
:0a17670000000000000036dc6c00fa
:20177100000000000000000000000000000000000000000000c00340000000000000000055
:0917910000000c00000000000043
:20179a0010000000000000000000000000000000000000000008001c2800000000000000d3
:0a17ba000000008003400000000062
:0217c400000023
:0217c60011010f
:0217c80001011d
:2017ca000000020000000000000800000000000020000000000800000000000020000000ad
:0917ea0000000080000000000076
:2017f3000000000000000000000000000000000000000000000000000000000000000000d6
:0a18130000000000000000000000cb
:20181d00000001000000000000040000000000001000000000040000000000001003c000bf
:09183d00000000400b0000000057
:20184600000000000000000000000000000000000000000000000000000000000000200062
:0a18660000000000008000000000f8
:2018700000000200000008000008000000100000200000008008003000000000200000003e
:09189000c000008000000300000c
:2018990000000000034000c000000000000300000000000004000000000300000000000022
:0a18b9000400000000000010000011
:2018c300000000000004000000000000100000000001c040000000001000000000000040a0
:0918e300000000000001000000fb
:2018ec000000000000000000000000000000000000000000000000000000000000000000dc
:0a190c0000000000000000000000d1
:2019160000000000000c00000000003830000000000000c00000000030000000000000c08d
:0919360080000000000300000025
:20193f00000000000000000000000000800000000000000000000000000000000000000008
:0a195f00000000000000000000007e
:20196900000000000000000000000000000000000000000000000000003000000003c0006b
:09198900400000000b0001000009
:20199200000000000000000000000000000000000000000000008000000200000200200091
:0a19b200040000080080001000008f
:2019bc000000000000000000000000000000000000000000000000300000000000000000db
:0919dc0000000000000000000002
:2019e5000000000000000000000000000000000000000000000040000000000001000000a1
:0a1a050000000004000000000000d3
:201a0f00000000000004000000000000100000000000004000000000100000000000004013
:091a2f00000000000001000000ad
:201a380000000000000000000000000000000000000000000000800000000000020000000c
:0a1a5800000000080000000000007c
:201a6200000000000000000000000000000000000000000000000000000000000000000064
:091a82000000000000000000005b
:201a8b00000000000000000000000000000000000000000000000000000000000200000039
:0a1aab000000000000000000000031
:201ab500000000000000000000000000000000000000000000000000000000000000000011
:091ad50000000000000000000008
:201ade000000000000000000000000000000000000000000000000000000000000000000e8
:0a1afe0000000000000000000000de
:201b08000000000000000000000000000000000000000000000000000000000000000000bd
:091b2800000000000000000000b4
:201b3100000000000000000000000000000000000000000000000000000000000000000094
:0a1b5100000000000000000000008a
:201b5b00000200000000000000000000000000000000000000000000000000000000000068
:091b7b0000000000000000000061
:201b8400000000000000000000000000000000000000000000000000000000000000000041
:0a1ba4000000000000000000000037
:201bae00000000000000000000000000000000000000000000000000000000000000000017
:091bce000000000000000000000e
:201bd7000000300000000000000000000000000000000000000000000000000000000000be
:0a1bf70000000000000000000000e4
:201c01000000000000000000000000000000000000000000000000000000000000000000c3
:091c2100000000000000000000ba
:201c2a0000000000000000000000000000000000000000000000000000000000000000009a
:0a1c4a000000000000000000000090
:201c5400000000000000000000000000000000000000000000000000000000001000000060
:091c740000000000000000000067
:201c7d000000000000000000000000000000000000000000000002000000000000800000c5
:0a1c9d00000000000000000000003d
:201ca700180200000000000000000000000000000000000000000000000000000000000003
:091cc70000000000000000000014
:201cd0000000000000000000000000000000000000000000000000000000000000000000f4
:0a1cf00000000000000000000000ea
:201cfa000000000000000000000000000000000000000000000000c000000000000000000a
:091d1a00000000000000000000c0
:201d23000000000000000000000000000000000000000000000000000000000000000000a0
:0a1d43000000000000000000000096
:201d4d000000000000000000000000000000000000000000000000000000a00000000000d6
:091d6d00000000008000000000ed
:201d7600000000000000000000000000000000000000000000000000005a0a0000000000e9
:0a1d96000000000010000000000033
:201da0000000000000000000000000000000000000000000000000c0000000000000000063
:091dc0000000000080000000009a
:201dc9000000000000000000000000000000000000000000000000000000000000000000fa
:0a1de90000000000100000000000e0
:201df3000002000000000000000000000000000000000000000000400c00a00000000000e2
:091e1300000000000000000000c6
:201e1c0000000000000000000000000000000000000000000000000001fa5040000000001b
:0a1e3c00000000000000000000009c
:201e460000000000000000000000000000000000000000000000004000000000000000003c
:091e660000000000000000000073
:201e6f00000030000000000000000000000000000000000000000020000000000000000003
:0a1e8f000000000000000000000049
:201e9900000000000000000000000000000000000000000000000000000000000000000029
:091eb90000000000000000000020
:201ec200000000000000000000000000000000000000000000000000000000000000000000
:0a1ee20000000000000000000000f6
:201eec00000000000000000000000000000000000000000000800000148030000000000092
:091f0c00000000000000000000cc
:201f150000000000000000000000000000000000000000000002000002dc06400000000086
:0a1f350000000000000000000000a2
:201f3f0000020000000000000000000000000000040000000000000000000000000000007c
:091f5f0000000000000000000079
:201f6800000000000000000000000000000000000000000000000006000000000000000053
:0a1f8800000000000000000000004f
:201f920000000000000000000000000000000000000000000000000217da700020000000ac
:091fb20000000000000000000026
:201fbb0004000000000000000000000000000000000000000000000065f9a14000000000c3
:0a1fdb0000000000080000000000f4
:201fe50080000000000000000000000000000000000000000000002225ef0000000008001e
:09200500000000000000000000d2
:20200e0000000000000000000000000000000000000000000000001c075ed1408000001090
:0a202e0000000000000000000000a8
:202038000800000000000000000000000000000000000000000003c415de500000000b5615
:09205800b9400000000000000086
:20206100044000000000000000000000000000000000000000000020217885400000000598
:0a208100f61500000000000000004a
:20208b00002e0000000000000000000000000000000000000000004024cd10800000000046
:0920ab000000000000000000002c
:2020b4000000400000000000000000000000000000000000000000007b5bf04000000000c6
:0a20d4000000000000000000000002
:2020de0000000000000000000000000000000000002000000000004217ba7000000b000034
:0920fe00000000000000000000d9
:202107000000300000000000000000000000000000010000000000260159a140000098008e
:0a21270000000000000000000000ae
:2021310008000000000000000000000000000000000000000000024025cf0000000580b615
:09215100bc0200000000000000c7
:20215a00040000000000000000000000000000000000000000000020634ed1480000180d52
:0a217a003b450000000000000000db
:20218400800000000000000000000800000000000000000000800002c0000002000000006f
:0921a40000000002000000000030
:2021ad000000000000000000000001400000000000000000000200000000000008000000c7
:0a21cd0000000000400000000000c8
:2021d700002e000000000000000000000000000000000000000000000000f1540000000075
:0921f700000000000000000000df
:2022000004004000000000000000000000000000000000000000000000080f3080000000b3
:0a22200000000000000000000000b4
:20222a000000000000000000000000400205520000000000000003c3be8a5002000000009b
:09224a0000000800000000000083
:2022530004000000000000000000002001685540000000000000003467e05a8030000000c4
:0a227300000000c0000000000000a1
:20227d008028000000000000000000400200f20000000000000003c3ceea50008000000017
:09229d00000002000040000000f6
:2022a6000000400000000000000000260168f0c0000000000000002667615a80000000c011
:0a22c6000000000000070000000007
:2022d0000800000000000000000000000000f00000000000000001c3c380f00000000000ff
:0922f000000000000000000000e5
:2022f90004c0000000000000000000000168f0d0000000000000002034590f90000000008c
:0a23190000000000000000000000ba
:202323000002000000000000000000000000f20000000000000001e00e8a500000000000dd
:0923430000000000000000000091
:20234c0000000000000000000000000001e8f0c0000000000000002400e15a8000000000f9
:0a236c000000000000000000000067
:202376000000000000000000000000020200f000000000000000000603c0f0000001000099
:092396000000000000000000003e
:20239f000000300000000000000000066548f0e0000000000000001c2ddc0f8000000000b7
:0a23bf000000000000000000000014
:2023c9000828000000000000000000020200f000000000000000004202b0f00000000000ec
:0923e90000000c002c00000000b3
:2023f2000480400000000000000000006548f0e00000000000000020055f0f800000000077
:0a241200000000c0020000000000fe
:20241c008000000000000000008000000000f0000000000000000062fc9a50020020000046
:09243c00000008000001405a40b4
:2024450000000000000000000002000001c8f0e0000000000000003405c05a8008040000fd
:0a246500000000200000000a5400ef
:20246f000002000000000000002000000000f0200400000000200006c0a0f000800010f41d
:09248f00141042000000000000de
:2024980004000000000000000000000001c8f0e0000000000000001c2d4f0f8000000185da
:0a24b800a001000000000000000079
:2024c20000000000000000000000000000000000000000000000000000000002000000b642
:0924e200565040000000005f00ac
:2024eb0000000000000000000000000000000000000000000000000000000000300011afe1
:0a250b00fa95000000001585f000ad
:2025150000000800000000000020000000000000000000000020000000000000800008b323
:0925350096d042000000000000f5
:20253e00000000000000000000000000000000000000000000000000000000000000001964
:0a255e00f6850000000000000000f8
:2025680000000000000000000000000000000000000000000000100000000000000008003b
:0925880000000000000000fa0050
:202591000000000000000000000000000000000000000000000000800000000000005990c1
:0a25b100000000000000158fa000dc
:2025bb000002000000000000000000000000000000000000000000000000000000000a17dd
:0925db00b6900000000010400061
:2025e40000000000000000000000000000000000000000000000000000000000000001b91d
:0a260400b615010000000584003047
:20260e000000000000000000000000000000000000000000000000000000000000000e1688
:09262e00f05200000000000a0057
:20263700000030000000000000000000000000000000000000000000000000000000000f44
:0a265700ff1d000000001580a00028
:2026610008000000000000000000000000000000000000000000000000000000000100bb95
:09268100a150400000004ae700ee
:20268a0004000000000000000000000000000000000000000000000000000000000080a705
:0a26aa00679500000140200db0000c
:2026b40080000000000000000000000000000000000000000000000000000002000100166d
:0926d40056501000140000000033
:2026dd00000000000000000000000000000000000000000000000000000000000800d007fe
:0a26fd00b295000000078000000005
:2027070000360800000000000020000000000000000000000020000000000000805000d391
:09272700a9d042000000000000ee
:2027300004004000000000000000000000000000000000000000000000000000000218a586
:0a2750007685000001c000000000c3
:20275a0000002000000000000080002400000000000000000080000000000000000000001b
:09277a000000080000000000004e
:202783000000030000000000000c00067000000000000000000c00000000000000000000a5
:0a27a300000000c00000000000006c
:2027ad000000000000000000000000002cfdfc800000000000000000000000000000000067
:0927cd0000000000000000000003
:2027d60000000000001a0000000000000249a140000000000000000000000000000000009d
:0a27f6000000000000600000000079
:20280000000000000100000000000002009f000000000000000000000000000000000052c4
:092820009080000000000000009f
:2028290000000000000800000000000005e8f0800000000000000000000000000000000822
:0a284900020400000000000000007f
:2028530000020000000000000000000402af000000000000000000020000000000000000ac
:092873003e800000004050f0c05e
:20287c000000000000000000000000006068f08000000000000000000400000000000005fb
:0a289c006be80000000636cff400e0
:2028a60000000000000b671900000000029f0000000000000000000000000000000500528f
:0928c600a0400000040000000025
:2028cf00000030000000d390900000000148f0800000000000000000000000000000000805
:0a28ef0001080000020000000000d4
:2028f9000000000008000000000a002282af000000000000000001402c05ac000005000037
:09291900000000000000000000b5
:2029220000000000018000000000400e68c8f0800000000000000000004a505080000000bc
:0a294200000000000000000000008b
:20294c00000020000000000000800002829f00000000000000800000000000000000000028
:09296c00000008001402cafac0c0
:202975000000008000000000000200002868f08000000000000200000000000000000000be
:0a29950000000020020006fed4003e
:20299f000002000000000000000000040200002004000000000000000000000000000000ec
:0929bf000000000000000000000f
:2029c8000000000000180000000000143940008000000000000000140000000000000000b6
:0a29e80000000000000000000000e5
:2029f2000000200000000000008004020cdc94000000000000800020000000020000000001
:092a12000000080024000000008f
:202a1b000000030005000000000c00800459424000000000000c000e0000000030000000de
:0a2a3b00000000c0020000000000cf
:202a45000000000000a000000000000605ad440000000000000000022de1040000290a008e
:092a650000000000022000000046
:202a6e000000000000000000000000002cde504000000000000000066e6e2440000501b0b2
:0a2a8e00000000000060400000009e
:202a98000000000000f3b327000000000000000000000000000004020e00a400000900fa96
:092ab8008c9000002c00000000cd
:202ac1000000000001813ff9d0000000600000000000000000000006076c08420000000741
:0a2ae10069c10000020000000000bf
:202aeb000002000000000000000009c00000000000000000000000401d0af0000000001495
:092b0b003ff01000000000000082
:202b1400000000000580000000000026000000000000000000000020020a5f000000000566
:0a2b3400a3c10000006000000000d3
:202b3e00000000000003ffa3000000000000000000000000000000000000000000010000d1
:092b5e00141000000000c00a0080
:202b67000000300000003abd500000160000000000000000000000002800000000009803fe
:0a2b8700e141000001601da0000004
:202b9100000000000000000000000160050b04000000000000000002ed0eb40000050000f9
:092bb100000000000000e0a0405b
:202bba00000000000018000000000014000e32420000000000000000026ee34200000000b8
:0a2bda000000000000003deaf400d6
:202be400000020000000000000800b40140f500000000000008000000db01002000500001f
:092c0400000008001401ccc341da
:202c0d00000000800000000000020140004ce502000000000002001403fa00000800000096
:0a2c2d000000002000002f8d1400ad
:202c37000002000000000000000001c03faff00000000000000000002ef0010000010017a5
:092c5700c0104000000000000064
:202c6000000000000000000000000020684ff720000000000000000003dc40000000818f37
:0a2c8000390102000000000000000e
:202c8a000000000000000000000000000000000000000000008000022cff74820000000087
:092caa0000000000000000000021
:202cb3000000000000000000000000000000000000000000000c0000024da1403000000095
:0a2cd3000000000000038000000074
:202cdd000000000000000000000000000000000000000000000000003e05a00000000ab436
:092cfd0006100000400000000078
:202d060000000000000000000000000000000000000000000000000628f8aa20000018089d
:0a2d2600609d080008000000000096
:202d30000000000000000000000002c0000000000000000000000000050ff0000009089418
:092d50001e80000082000000005a
:202d5900000000000000000000000020000000000000000000000016626e5f00000080185d
:0a2d790032d40800054000000000fd
:202d83000002000000000000000000000400520000000000000403c20000000000000a30d5
:092da3000000000000015fc30004
:202dac0000000000000000000000000003780070000000000000a02004000000000000193f
:0a2dcc002808080000000eb23000d5
:202dd6000000000000000000000003c2c0000000000000000000034000000000000180d8bc
:092df60000000000800000000054
:202dff00000030000000000000000000000000000000000000000020000000000000d00391
:0a2e1f0081680000140000000000ac
:202e290000000000000000000000000000000000000000000000004006d8340000050a0028
:092e490000000000002d5f0800ec
:202e5200000000000000000000000000000000000000000000000034025c134000008010eb
:0a2e72000000000001600eb4000033
:202e7c0000000000000000000080004400000000000000000084036016cb0402000010f0a4
:092e9c00395000020000000000a2
:202ea50000000000000000000002003c280000000000000000020034024f3240080001a7fe
:0a2ec50068950800000000000000fe
:202ecf000002000000000000000000000f0ff000040000000000034294805400000000081a
:092eef00028000008000000000d8
:202ef800000000000000000000000000027af5200000000000000000295d354000005801d5
:0a2f1800e82800001400000000008b
:022f22000000ad
:022f2400110298
:022f26000101a7
:202f2800000000000000000000000000000000000000000000000000000000000000000089
:092f480000000000000000000080
:202f5100000000000000000000000000000000000000000000000000000000000000000060
:0a2f71000000000000000000000056
:202f7b00000000000000000000000000000000000000000000000000000000000000000036
:092f9b000000000000000000002d
:202fa40000000000000000000000000000000000000000000000000000000000000000000d
:0a2fc4000000000000000000000003
:202fce000000000000000000000000000000000000000000000000000000000000000000e3
:092fee00000000000000000000da
:202ff7000000000000000000000000000000000000000000000000000000000000000000ba
:0a30170000000000000000000000af
:203021000000000000080000000000002000000000080000000000002000000000000080bf
:0930410000000000000200000084
:20304a00000000000000000000000000000000000000000000000000000000000000000066
:0a306a00000000000000000000005c
:2030740000000000000c00000000000030000000000c00000000000030000000000000c004
:0930940000000000000300000030
:20309d00000000000000000000000000000000000000000000000000000000000000000013
:0a30bd000000000000000000000009
:2030c7000000000000000000000000000000000000000000000000000000000000000000e9
:0930e700000000000000000000e0
:2030f0000000000000000000000000000000000000000000000000000000000000000000c0
:0a31100000000000000000000000b5
:20311a00000000000000000000000000000000000000000000000000000000000000000095
:09313a000000000000000000008c
:2031430000000000000000000000000000000000000000000000000000000000000000006c
:0a3163000000000000000000000062
:20316d00000000000008000000000000200000000008000000000000200000000000008072
:09318d0000000000000200000037
:20319600000000000000000000000000000000000000000000000000000000000000000019
:0a31b600000000000000000000000f
:2031c0000000000000000000000000000000000000000000000000000000000000000000ef
:0931e000000000000000000000e6
:2031e90000002000000000000000000000000000000000000800000000000000000000009e
:0a32090000000000000000000000bb
:2032130000000000000000000000000000000000000000000000000000000000000000009b
:0932330000000000000000000092
:20323c00000000000000000000000000000000000000000000000000000000000000000072
:0a325c000000000000000000000068
:20326600000000000000000000000000000000000000000000000000000000000000000048
:093286000000000000000000003f
:20328f0000000000000000000000000000000000000000000000000000000000000000001f
:0a32af000000000000000000000015
:2032b9000003000000000000000000000000000000000000000000000000000000000000f2
:0932d900000000000000000000ec
:2032e2000000000000000000000000000000000000000000000000000000000000000000cc
:0a33020000000000000000000000c1
:20330c000000000000000000000000000000000000000000000000000000000000000000a1
:09332c0000000000000000000098
:20333500000020000000000000000000000000000000000000000000000000000000000058
:0a335500000000000000000000006e
:20335f0000000000000000000000000000000000000000000000000000000000000000004e
:09337f0000000000000000000045
:20338800000000000000000000000000000000000000000000000000000000000000000025
:0a33a800000000000000000000001b
:2033b2000000000000000000000000000000000000000000000000000000000000000000fb
:0933d200000000000000000000f2
:2033db000000000000000000000000000000000000000000000000000000000000000000d2
:0a33fb0000000000000000000000c8
:203405000000000000000000000000000000000000000000000000000000000000000000a7
:093425000000000000000000009e
:20342e0000000000000000000000000000000000000000000000000000000000000000007e
:0a344e000000000000000000000074
:20345800000000000000000000000000000000000000000000000000000000000000000054
:093478000000000000000000004b
:2034810000002000000000000000000000000000000000000000000000000000000000000b
:0a34a1000000000000000000000021
:2034ab00000000000000000000000000000000000000000000000000000000000000000001
:0934cb00000000000000000000f8
:2034d4000000000000000000000000000000000000000000000000000000000000000000d8
:0a34f40000000000000000000000ce
:2034fe000000000000000000000000000000000000000000000000000000000000000000ae
:09351e00000000000000000000a4
:20352700000000000000000000000000000000000000000000000000000000000000000084
:0a354700000000000000000000007a
:20355100000300000000000000000000000000000000000000000000000000000000000057
:0935710000000000000000000051
:20357a00000000000000000000000000000000000000000000000000000000000000000031
:0a359a000000000000000000000027
:2035a400000000000000000000000000000000000000000000000000000000000000000007
:0935c400000000000000000000fe
:2035cd000000200000000000000000000000000000000000000000000000000000000000be
:0a35ed0000000000000000000000d4
:2035f7000000000000000000000000000000000000000000000000000000000000000000b4
:09361700000000000000000000aa
:2036200000000000000000000000000000000000000000000000000000000000000000008a
:0a3640000000000000000000000080
:20364a00000000000000000000000000000000000000000000000000000000000000000060
:09366a0000000000000000000057
:20367300000000000000000000000000000000000000000000000000000000000000000037
:0a369300000000000000000000002d
:20369d0000000000000000000000000000000000000000000000000000000000000000000d
:0936bd0000000000000000000004
:2036c6000000000000000000000000000000000000000000000000000000000000000000e4
:0a36e60000000000000000000000da
:2036f0000000000000000000000000000000000000000000000000000000000000000000ba
:09371000000000000000000000b0
:20371900000020000000000000000000000000000000000008000000000000000000000068
:0a3739000000000000000000000086
:20374300000000000000000000000000000000000000000000000000000000000000000066
:093763000000000000000000005d
:20376c0000000000000000000000000000000000000000000000000000000000000000003d
:0a378c000000000000000000000033
:20379600000000000000000000000000000000000000000000000000000000000000000013
:0937b6000000000000000000000a
:2037bf000000000000000000000000000000000000000000000000000000000000000000ea
:0a37df0000000000000000000000e0
:2037e9000003000000000000000000000000000000000000000000000000000000000000bd
:09380900000000000000000000b6
:20381200000000000000000000000000000000000000000000000000000000000000000096
:0a383200000000000000000000008c
:20383c0000000000000000000000000000000000000000000000000000000000000000006c
:09385c0000000000000000000063
:20386500000020000000000000000000000000000000000000000000000000000000000023
:0a3885000000000000000000000039
:20388f00000000000000000000000000000000000000000000000000000000000000000019
:0938af0000000000000000000010
:2038b8000000000000000000000000000000000000000000000000000000000000000000f0
:0a38d80000000000000000000000e6
:2038e2000000000000000000000000000000000000000000000000000000000000000000c6
:09390200000000000000000000bc
:20390b0000000000000000000000000000000000000000000000000000000000000000009c
:0a392b000000000000000000000092
:20393500000000000000000000000000000000000000000000000000000000000000000072
:0939550000000000000000000069
:20395e00000000000000000000000000000000000000000000000000000000000000000049
:0a397e00000000000000000000003f
:2039880000000000000000000000000000000000000000000000000000000000000000001f
:0939a80000000000000000000016
:2039b1000000200000000000000000000000000000000000000000000000000000000000d6
:0a39d10000000000000000000000ec
:2039db000000000000000000000000000000000000000000000000000000000000000000cc
:0939fb00000000000000000000c3
:203a04000000000000000000000000000000000000000000000000000000000000000000a2
:0a3a24000000000000000000000098
:203a2e00000000000000000000000000000000000000000000000000000000000000000078
:093a4e000000000000000000006f
:203a570000000000000000000000000000000000000000000000000000000000000000004f
:0a3a77000000000000000000000045
:203a8100000100000000000000000000000000000000000000000000000000000000000024
:093aa1000000000000000000001c
:203aaa000000000000000000000000000000000000000000000000000000000000000000fc
:0a3aca0000000000000000000000f2
:203ad400400000000000000000000000000000000000000000000000000000000000000092
:093af400000000000000000000c9
:203afd00000020000000000000000000000000000000000000000000000000000000000089
:0a3b1d00000000000000000000009e
:203b270000000000000000000000000000000000000000000000000000000000000000007e
:093b470000000000000000000075
:203b5000000000000000000000000000000000000000000000000000000000000000000055
:0a3b7000000000000000000000004b
:203b7a0000000000000000000000000000000000000000000000000000000000000000002b
:093b9a0000000000000000000022
:203ba3000800000000000000000000000000000000000000000000000000000000000000fa
:0a3bc30000000000000000000000f8
:203bcd000000000000000000000000000000000000000000000000000000000000000000d8
:093bed00000000000000000000cf
:203bf6000000000000000000000000000000000000000000000000000000000000000000af
:0a3c160000000000000000000000a4
:203c2000000000000000000000000000000000000000000000000000000000000000000084
:093c40000000000000000000007b
:203c4900000020000000000000000000000000000000000008000000000000000000000033
:0a3c69000000000000000000001041
:203c7300000000000000000000000000000000000000000000000000000000000000000031
:093c930000000000000000000028
:203c9c00000000000000000000000000000000000000000000000000000000000000000008
:0a3cbc0000000000000000000000fe
:203cc6000000000000000000000000000000000000000000000000000000000000000000de
:093ce600000000000000000000d5
:203cef000000000000000000000000000000000000000000000000000000000000000000b5
:0a3d0f0000000000000000000000aa
:203d1900000300000000000000000000000000000000000000000000000000000000000087
:093d390000000000000000000081
:203d4200000000000000000000000000000000000000000000000000000000000000000061
:0a3d62000000000000000000000057
:203d6c00000000000000000000000000000000000000000000000000000000000000000037
:093d8c000000000000000000002e
:203d95000000200000000000000000000000000000000000000000000000000000000000ee
:0a3db5000000000000000000000004
:203dbf000000000000000000000000000000000000000000000000000000000000000000e4
:093ddf00000000000000000000db
:203de8000000000000000000000000000000000000000000000000000000000000000000bb
:0a3e080000000000000000000000b0
:203e1200000000000000000000000000000000000000000000000000000000000000000090
:093e320000000000000000000087
:203e3b00000000000000000000000000000000000000000000000000000000000000000067
:0a3e5b00000000000000000000104d
:203e650000000000000000000000000000000000000000000000000000000000000000003d
:093e850000000000000000000034
:203e8e00000000000000000000000000000000000000000000000000000000000000000014
:0a3eae00000000000000000000000a
:203eb8000000000000000000000000000000000000000000000000000000000000000000ea
:093ed800000000000000000000e1
:203ee1000000200000000000000000000000000000000000000000000000000000000000a1
:0a3f010000000000000000000000b6
:203f0b00000000000000000000000000000000000000000000000000000000000000000096
:093f2b000000000000000000008d
:203f340000000000000000000000000000000000000000000000000000000000000000006d
:0a3f54000000000000000000000063
:203f5e00000000000000000000000000000000000000000000000000000000000000000043
:093f7e000000000000000000003a
:203f870000000000000000000000000000000000000000000000000000000000000000001a
:0a3fa7000000000000000000000010
:203fb1000003000000000000000000000000000000000000000000000000000000000000ed
:093fd100000000000000000000e7
:203fda000000000000000000000000000000000000000000000000000000000000000000c7
:0a3ffa0000000000000000000000bd
:2040040000000000000000000000000000000000000000000000000000000000000000009c
:0940240000000000000000000093
:20402d00000020000000000000000000000000000000000000000000000000000000000053
:0a404d000000000000000000000069
:20405700000000000000000000000000000000000000000000000000000000000000000049
:0940770000000000000000000040
:20408000000000000000000000000000000000000000000000000000000000000000000020
:0a40a0000000000000000000000016
:2040aa000000000000000000000000000000000000000000000000000000000000000000f6
:0940ca00000000000000000000ed
:2040d3000000000000000000000000000000000000000000000000000000000000000000cd
:0a40f30000000000000000000000c3
:2040fd000000000000000000000000000000000000000000000000000000000000000000a3
:09411d0000000000000000000099
:20412600000000000000000000000000000000000000000000000000000000000000000079
:0a414600000000000000000000006f
:2041500000000000000000000000000000000000000000000000000000000000000000004f
:0941700000000000000000000046
:204179000000200000000000000000000000000000000000080000000000000000000000fe
:0a419900000000000000000000001c
:2041a3000000000000000000000000000000000000000000000000000000000000000000fc
:0941c300000000000000000000f3
:2041cc000000000000000000000000000000000000000000000000000000000000000000d3
:0a41ec0000000000000000000000c9
:2041f6000000000000000000000000000000000000000000000000000000000000000000a9
:094216000000000000000000009f
:20421f0000000000000000000000000000000000000000000000000000000000000000007f
:0a423f000000000000000000000075
:20424900000300000000000000000000000000000000000000000000000000000000000052
:094269000000000000000000004c
:2042720000000000000000000000000000000000000000000000000000000000000000002c
:0a4292000000000000000000000022
:20429c00000000000000000000000000000000000000000000000000000000000000000002
:0942bc00000000000000000000f9
:2042c5000000200000000000000000000000000000000000000000000000000000000000b9
:0a42e50000000000000000000000cf
:2042ef000000000000000000000000000000000000000000000000000000000000000000af
:09430f00000000000000000000a5
:20431800000000000000000000000000000000000000000000000000000000000000000085
:0a433800000000000000000000007b
:2043420000000000000000000000000000000000000000000000000000000000000000005b
:0943620000000000000000000052
:20436b00000000000000000000000000000000000000000000000000000000000000000032
:0a438b000000000000000000000028
:20439500000000000000000000000000000000000000000000000000000000000000000008
:0943b500000000000000000000ff
:2043be000000000000000000000000000000000000000000000000000000000000000000df
:0a43de0000000000000000000000d5
:2043e8000000000000000000000000000000000000000000000000000000000000000000b5
:09440800000000000000000000ab
:2044110000002000000000000000000000000000000000000000000000000000000000006b
:0a4431000000000000000000000081
:20443b00003000000000000000000000000000000000000000000000000000000000000031
:09445b0000000000000000000157
:20446400000000000000000000000000000000000000000000000000000000000000000038
:0a448400000000000000000000042a
:20448e0000000000000000000000000000000000000000000000000000000000000000000e
:0944ae0000000000000000000005
:2044b7000000000000000000000000000000000000000000000000000000000000000000e5
:0a44d70000000000000000000000db
:2044e1000003000000000000000000000000000000000000000000000000000000000000b8
:0945010000000000000080000031
:20450a00000000000000000000000000000000000000000000000000000000000000000091
:0a452a000000000000000500000082
:20453400000000000000000000000000000000000000000000000000000000000000000067
:09455400000000283d6000000099
:20455d0000002000000000000000000000000000000000000000000000000000000000001e
:0a457d0000000000c3c200000000af
:204587004000000000000000000000000000000000000000000000000000000000000000d4
:0945a7000000000000000000000b
:2045b00000c00000000000000000000000000000000000000000000000000000000000002b
:0a45d00000000000000000000000e1
:2045da000000000000000000000000000000000000000000000000000000000000000000c1
:0945fa00000000000000000000b8
:2046030008000000000000000000000000000000000000000000000000000000000000008f
:0a462300000000000000000000008d
:20462d0040000000000000000000000000000000000000000000000000000000000000002d
:09464d0000000000000000000064
:20465600c00000000000000000000000000000000000000000000000000000000000000084
:0a4676000000000000000000000436
:02468000000038
:02468200110322
:02468400010132
:20468600000000000000000000000000000000000000000000000000000000000000000014
:0946a6000000000000000000000b
:2046af000000000000000000000000000000000000000000000000000000000000000000eb
:0a46cf0000000000000000000000e1
:2046d9000000000000000000000000000000000000000000000000000000000000000000c1
:0946f900000000000000000000b8
:20470200000000000000000000000000000000000000000000000000000000000000000097
:0a472200000000000000000000008d
:20472c0000000000000000000000000000000000000000000000000000000000000000006d
:09474c0000000000000000000064
:20475500000000000000000000000000000000000000000000000000000000000000000044
:0a477500000000000000000000003a
:20477f0000000000000800000000000020000000000800000000000020000000000000804a
:09479f000000000000020000000f
:2047a8000000000000000000000000000000000000000000000000000000000000000000f1
:0a47c80000000000000000000000e7
:2047d20000000000000c00000000000030000000000c00000000000030000000000000c08f
:0947f200000000000003000000bb
:2047fb0000000000000000000000000000000000000000000000000000000000000000009e
:0a481b000000000000000000000093
:20482500000000000000000000000000000000000000000000000000000000000000000073
:094845000000000000000000006a
:20484e0000000000000000000000000000000000000000000000000000000000000000004a
:0a486e000000000000000000000040
:20487800000000000000000000000000000000000000000000000000000000000000000020
:0948980000000000000000000017
:2048a1000000000000000000000000000000000000000000000000000000000000000000f7
:0a48c10000000000000000000000ed
:2048cb000000000000080000000000002000000000080000000000002000000000000080fd
:0948eb00000000000002000000c2
:2048f4000000000000000000000000000000000000000000000000000000000000000000a4
:0a4914000000000000000000000099
:20491e00000000000000000000000000000000000000000000000000000000000000000079
:09493e0000000000000000000070
:20494700000000000000000000000000000000000000000000000000000000000000000050
:0a4967000000000000000000000046
:20497100000000000000000000000000000000000000000000000000000000000000000026
:094991000000000000000000001d
:20499a000000000000000000000000000000000000000000000000000000000000000000fd
:0a49ba0000000000000000000000f3
:2049c4000000000000000000000000000000000000000000000000000000000000000000d3
:0949e400000000000000000000ca
:2049ed000000000000000000000000000000000000000000000000000000000000000000aa
:0a4a0d00000000000000000000009f
:204a170000020000000000000000000000000000000000000000000000000000000000007d
:094a370000000000000000000076
:204a4000000000000000000000000000000000000000000000000000000000000000000056
:0a4a6000000000000000000000004c
:204a6a0000000000000000000000000000000000000000000000000000000000000000002c
:094a8a0000000000000000000023
:204a93000000300000000000000000000000000000000000000000000000000000000000d3
:0a4ab30000000000000000000000f9
:204abd000000000000000000000000000000000000000000000000000000000000000000d9
:094add00000000000000000000d0
:204ae6000000000000000000000000000000000000000000000000000000000000000000b0
:0a4b060000000000000000000000a5
:204b1000000000000000000000000000000000000000000000000000000000000000000085
:094b30000000000000000000007c
:204b390000000000000000000000000000000000000000000000000000000000000000005c
:0a4b59000000000000000000000052
:204b6300000200000000000000000000000000000000000000000000000000000000000030
:094b830000000000000000000029
:204b8c00000000000000000000000000000000000000000000000000000000000000000009
:0a4bac0000000000000000000000ff
:204bb6000000000000000000000000000000000000000000000000000000000000000000df
:094bd600000000000000000000d6
:204bdf000000000000000000000000000000000000000000000000000000000000000000b6
:0a4bff0000000000000000000000ac
:204c090000000000000000000000000000000000000000000000000000000000000000008b
:094c290000000000000000000082
:204c3200000000000000000000000000000000000000000000000000000000000000000062
:0a4c52000000000000000000000058
:204c5c00000000000000000000000000000000000000000000000000000000000000000038
:094c7c000000000000000000002f
:204c850000000000000000000000000000000000000000000000000000000000000000000f
:0a4ca5000000000000000000000005
:204caf000002000000000000000000000000000000000000000000000000000000000000e3
:094ccf00000000000000000000dc
:204cd8000000000000000000000000000000000000000000000000000000000000000000bc
:0a4cf80000000000000000000000b2
:204d0200000000000000000000000000000000000000000000000000000000000000000091
:094d220000000000000000000088
:204d2b00000030000000000000000000000000000000000000000000000000000000000038
:0a4d4b00000000000000000000005e
:204d550000000000000000000000000000000000000000000000000000000000000000003e
:094d750000000000000000000035
:204d7e00000000000000000000000000000000000000000000000000000000000000000015
:0a4d9e00000000000000000000000b
:204da8000000000000000000000000000000000000000000000000000000000000000000eb
:094dc800000000000000000000e2
:204dd1000000000000000000000000000000000000000000000000000000000000000000c2
:0a4df10000000000000000000000b8
:204dfb00000200000000000000000000000000000000000080000000000000000000000016
:094e1b000000000000000000008e
:204e240000000000000000000000000000000000000000000000000000000000000000006e
:0a4e44000000000000000000000064
:204e4e00000000000000000000000000000000000000000000000000000000000000000044
:094e6e000000000000000000003b
:204e770000000000000000000000000000000000000000000000000000000000000000001b
:0a4e97000000000000000000000011
:204ea1000000000000000000000000000000000000000000000000000000000000000000f1
:094ec100000000000000000000e8
:204eca000000000000000000000000000000000000000000000000000000000000000000c8
:0a4eea0000000000000000000000be
:204ef40000000000000000000000000000000000000000000000000000000000000000009e
:094f140000000000000000000094
:204f1d00000000000000000000000000000000000000000000000000000000000000000074
:0a4f3d00000000000000000000006a
:204f4700000200000000000000000000000000000000000000000000000000000000000048
:094f670000000000000000000041
:204f7000000000000000000000000000000000000000000000000000000000000000000021
:0a4f90000000000000000000000017
:204f9a000000000000000000000000000000000000000000000000000000000000000000f7
:094fba00000000000000000000ee
:204fc30000003000000000000000000000000000000000000000000000000000000000009e
:0a4fe30000000000000000000000c4
:204fed000000000000000000000000000000000000000000000000000000000000000000a4
:09500d000000000000000000009a
:2050160000000000000000000000000000000000000000000000000000000000000000007a
:0a5036000000000000000000000070
:20504000000000000000000000000000000000000000000000000000000000000000000050
:0950600000000000000000000047
:20506900000000000000000000000000000000000000000000000000000000000000000027
:0a508900000000000000000000001d
:205093000002000000000000000000000000000000000000000000000000000000000000fb
:0950b300000000000000000000f4
:2050bc000000000000000000000000000000000000000000000000000000000000000000d4
:0a50dc0000000000000000000000ca
:2050e6000000000000000000000000000000000000000000000000000000000000000000aa
:09510600000000000000000000a0
:20510f00000000000000000000000000000000000000000000000000000000000000000080
:0a512f000000000000000000000076
:20513900000000000000000000000000000000000000000000000000000000000000000056
:095159000000000000000000004d
:2051620000000000000000000000000000000000000000000000000000000000000000002d
:0a5182000000000000000000000023
:20518c00000000000000000000000000000000000000000000000000000000000000000003
:0951ac00000000000000000000fa
:2051b5000000000000000000000000000000000000000000000000000000000000000000da
:0a51d50000000000000000000000d0
:2051df000002000000000000000000000000000000000000000000000000000000000000ae
:0951ff00000000000000000000a7
:20520800000000000000000000000000000000000000000000000000000000000000000086
:0a522800000000000000000000007c
:2052320000000000000000000000000000000000000000000000000000000000000000005c
:0952520000000000000000000053
:20525b00000030000000000000000000000000000000000000000000000000000000000003
:0a527b000000000000000000000029
:20528500000000000000000000000000000000000000000000000000000000000000000009
:0952a50000000000000000000000
:2052ae000000000000000000000000000000000000000000000000000000000000000000e0
:0a52ce0000000000000000000000d6
:2052d8000000000000000000000000000000000000000000000000000000000000000000b6
:0952f800000000000000000000ad
:2053010000000000000000000000000000000000000000000000000000000000000000008c
:0a5321000000000000000000000082
:20532b000002000000000000000000000000000000000000800000000000000000000000e0
:09534b0000000000000000000059
:20535400000000000000000000000000000000000000000000000000000000000000000039
:0a537400000000000000000000002f
:20537e0000000000000000000000000000000000000000000000000000000000000000000f
:20563f00040000000000000000000000000000000000000000000000000000000000000047
:0a565f000000000000000000000041
:20566900802c00000000000000000000000000000000000000000000000000000000000075
:0956890000000000000000000018
:205692000000400000000000000000000000000000000000000000000000000000000000b8
:0a56b20000000000000000000000ee
:2056bc000800000000000000000000000000000000000000000000000000000000000000c6
:0956dc00000000000000000000c5
:2056e50004c0000000000000000000000000000000000000000000000000000000000000e1
:0a570500000000000000000000009a
:20570f00000200000000000000000000000000000000000000000000000000000000000078
:09572f0000000000000000000071
:20573800000000000000000000000000000000000000000000000000000000000000000051
:0a5758000000000000000000000047
:20576200000000000000000000000000000000000000000000000000000000000000000027
:095782000000000000000000001e
:20578b000000300000000000000000000000000000000000000000000000000000000000ce
:0a57ab0000000000000000000000f4
:2057b5000000000000000000000000000000000000000000080000000000000000000000cc
:0957d500000000000000000000cb
:2057de000400000000000000000000000000000000000000000000000000000000000000a7
:0a57fe0000000000000000000000a1
:20580800800000000000000000000000000000000000000000000000000000000000000000
:0958280000000000000000000077
:20583100000000000000000000000000000000000000000000000000000000000000000057
:0a585100000000000000000000004d
:20585b000002000000000000000000000000000000000000800000000000000000000000ab
:09587b0000000000000000000024
:20588400040000000000000000000000000000000000000000000000000000000000000000
:0a58a40000000000000000000000fa
:2058ae000000000000000000000000000000000000000000000000000000000000000000da
:0958ce00000000000000000000d1
:2058d7000000000000000000000000000000000000000000000000000000000000000000b1
:0a58f70000000000000000000000a7
:20590100000000000000000000000000000000000000000000000000000000000000000086
:095921000000000000000000007d
:20592a0000000000000000000000000000000000000000000000000000000000000000005d
:0a594a000000000000000000000053
:20595400000000000000000000000000000000000000000000000000000000000000000033
:095974000000000000000000002a
:20597d0000000000000000000000000000000000000000000000000000000000000000000a
:0a599d000000000000000000000000
:2059a7000002000000000000000000000000000000000000000000000000000000000000de
:0959c700000000000000000000d7
:2059d0000000000000000000000000000000000000000000000000000000000000000000b7
:0a59f00000000000000000000000ad
:2059fa0000000000000000000000000000000000000000000000000000000000000000008d
:095a1a0000000000000000000083
:205a2300000030000000000000000000000000000000000000000000000000000000000033
:0a5a43000000000000000000000059
:205a4d00000000000000000000000000000000000000000000000000000000000000000039
:095a6d0000000000000000000030
:205a7600000000000000000000000000000000000000000000000000000000000000000010
:0a5a96000000000000000000000006
:205aa0000000000000000000000000000000000000000000000000000000000000000000e6
:095ac000000000000000000000dd
:205ac9000000000000000000000000000000000000000000000000000000000000000000bd
:0a5ae90000000000000000000000b3
:205af300000200000000000000000000000000000000000000000000000000000000000091
:095b130000000000000000000089
:205b1c00000000000000000000000000000000000000000000000000000000000000000069
:0a5b3c00000000000000000000005f
:205b460000000000000000000000000000000000000000000000000000000000000000003f
:095b660000000000000000000036
:205b6f00000000000000000000000000000000000000000000000000000000000000000016
:0a5b8f00000000000000000000000c
:205b99000000000000000000000000000000000000000000000000000000000000000000ec
:095bb900000000000000000000e3
:205bc2000000000000000000000000000000000000000000000000000000000000000000c3
:0a5be20000000000000000000000b9
:205bec00000000000000000000000000000000000000002800000000000000000000000071
:095c0c000000000000000000008f
:205c150000000000000000000000000000000000000000000000000000000000000000006f
:0a5c35000000000000000000000065
:205c3f00000000000000000000000000000000000000000000000000000000000000000045
:095c5f000000000000000000003c
:205c680000000000000000000000000000000000000000000000000000000000000000001c
:0a5c88000000000000000000000012
:205c92000000000000000000000000000000000000000000000000000000000000000000f2
:095cb200000000000000000000e9
:205cbb00000030000000000000000000000000000000000000000000000000000000000099
:0a5cdb0000000000000000000000bf
:205ce50000000000000000000000000000000000000000000000000000000000000000009f
:095d050000000000000000000095
:205d0e00000000000000000000000000000000000000000000000000000000000000000075
:0a5d2e00000000000000000000006b
:205d38008000000000000000000000000000000000000000000000000000000000000000cb
:095d580000000000000000000042
:205d6100000000000000000000000000000000000000000000000000000000000000000022
:0a5d81000000000000000000000018
:205d8b00000200000000000000000000000000000000000080000000000000000000000076
:095dab00000000000000000000ef
:205db4000000080000000000000000000000000000000000000000000000000000000000c7
:0a5dd40000000000000000000000c5
:025dde000000c3
:035de00062003f1f
:035de300720080cb
:025de6001100aa
:035de80082000036
:025deb000103b2
:085ded000000000000000000ae
:085df5000000000000000000a6
:085dfd0000000000000000009e
:085e0500000000000000000095
:0261ed000000b0
:0361ef00820080ab
:0261f2000103a7
:0861f4000000000000000000a3
:0861fc0000000000000000009b
:08620400000000000000000092
:08620c0000000000000000008a
:0265f4000000a5
:0265f600110191
:0365f8008200001e
:0265fb0001039a
:0865fd00000000000000000096
:0866050000000000000000008d
:08660d00000000000000000085
:0866150000000000000000007d
:0269fd00000098
:0369ff0082008093
:026a020001038e
:086a040000000000000000008a
:086a0c00000000000000000082
:086a140000000000000000007a
:086a1c00000000000000000072
:026e040000008c
:026e0600110277
:036e080082000005
:026e0b00010381
:086e0d0000000000000000007d
:086e1500000000000000000075
:086e1d0000000000000000006d
:086e2500000000000000000065
:02720d0000007f
:03720f008200807a
:02721200010376
:08721400000000000000000072
:08721c0000000000000000006a
:08722400000000000000000062
:08722c0000000000000000005a
:02761400000074
:0276160011035e
:03761800820000ed
:02761b00010369
:08761d00000000000000000065
:0876250000000000000000005d
:08762d00000000000000000055
:0876350000000000000000004d
:027a1d00000067
:037a1f0082008062
:027a220001035e
:087a240000000000000000005a
:087a2c00000000000000000052
:087a340000000000000000004a
:087a3c00000000000000000042
:027e240000005c
:017e26002239
:027e27003070b9
:027e2900010650
:00000001FF
